{
    "address": "0xDaEb2c80215c042b7eDe41564744487900f461d1",
    "abi": [
        {
            "inputs": [
                {
                    "internalType": "address",
                    "name": "priceFeed",
                    "type": "address"
                }
            ],
            "stateMutability": "nonpayable",
            "type": "constructor"
        },
        {
            "inputs": [],
            "name": "FundMe_NotOwner",
            "type": "error"
        },
        {
            "stateMutability": "payable",
            "type": "fallback"
        },
        {
            "inputs": [
                {
                    "internalType": "address",
                    "name": "",
                    "type": "address"
                }
            ],
            "name": "addressToAmmountFunded",
            "outputs": [
                {
                    "internalType": "uint256",
                    "name": "",
                    "type": "uint256"
                }
            ],
            "stateMutability": "view",
            "type": "function"
        },
        {
            "inputs": [],
            "name": "fund",
            "outputs": [],
            "stateMutability": "payable",
            "type": "function"
        },
        {
            "inputs": [
                {
                    "internalType": "uint256",
                    "name": "",
                    "type": "uint256"
                }
            ],
            "name": "funders",
            "outputs": [
                {
                    "internalType": "address",
                    "name": "",
                    "type": "address"
                }
            ],
            "stateMutability": "view",
            "type": "function"
        },
        {
            "inputs": [],
            "name": "i_owner",
            "outputs": [
                {
                    "internalType": "address",
                    "name": "",
                    "type": "address"
                }
            ],
            "stateMutability": "view",
            "type": "function"
        },
        {
            "inputs": [],
            "name": "minUsd",
            "outputs": [
                {
                    "internalType": "uint256",
                    "name": "",
                    "type": "uint256"
                }
            ],
            "stateMutability": "view",
            "type": "function"
        },
        {
            "inputs": [],
            "name": "withdraw",
            "outputs": [],
            "stateMutability": "nonpayable",
            "type": "function"
        },
        {
            "stateMutability": "payable",
            "type": "receive"
        }
    ],
    "transactionHash": "0x1ed7f777a8e18979720ff210b7966f4ad92f7d02b8adadc914081da43ca3ecce",
    "args": [
        "0x694AA1769357215DE4FAC081bf1f309aDC325306"
    ],
    "numDeployments": 1,
    "solcInputHash": "85c8c093ad1f93d7d5447ebc9a96e90c",
    "bytecode": "0x60a0604052603260005534801561001557600080fd5b50604051610ac6380380610ac683398181016040528101906100379190610115565b80600360006101000a81548173ffffffffffffffffffffffffffffffffffffffff021916908373ffffffffffffffffffffffffffffffffffffffff1602179055503373ffffffffffffffffffffffffffffffffffffffff1660808173ffffffffffffffffffffffffffffffffffffffff168152505050610142565b600080fd5b600073ffffffffffffffffffffffffffffffffffffffff82169050919050565b60006100e2826100b7565b9050919050565b6100f2816100d7565b81146100fd57600080fd5b50565b60008151905061010f816100e9565b92915050565b60006020828403121561012b5761012a6100b2565b5b600061013984828501610100565b91505092915050565b6080516109626101646000396000818161028701526103d901526109626000f3fe6080604052600436106100595760003560e01c80633ccfd60b1461007257806351b80e41146100895780639d68f269146100b4578063b60d4288146100f1578063dba6335f146100fb578063dc0d3dff1461012657610068565b3661006857610066610163565b005b610070610163565b005b34801561007e57600080fd5b50610087610285565b005b34801561009557600080fd5b5061009e6103b9565b6040516100ab91906104f6565b60405180910390f35b3480156100c057600080fd5b506100db60048036038101906100d69190610574565b6103bf565b6040516100e891906104f6565b60405180910390f35b6100f9610163565b005b34801561010757600080fd5b506101106103d7565b60405161011d91906105b0565b60405180910390f35b34801561013257600080fd5b5061014d600480360381019061014891906105f7565b6103fb565b60405161015a91906105b0565b60405180910390f35b61019a600360009054906101000a900473ffffffffffffffffffffffffffffffffffffffff1660005461043a90919063ffffffff16565b3410156101dc576040517f08c379a00000000000000000000000000000000000000000000000000000000081526004016101d390610681565b60405180910390fd5b6001339080600181540180825580915050600190039060005260206000200160009091909190916101000a81548173ffffffffffffffffffffffffffffffffffffffff021916908373ffffffffffffffffffffffffffffffffffffffff16021790555034600260003373ffffffffffffffffffffffffffffffffffffffff1673ffffffffffffffffffffffffffffffffffffffff16815260200190815260200160002081905550565b7f000000000000000000000000000000000000000000000000000000000000000073ffffffffffffffffffffffffffffffffffffffff163373ffffffffffffffffffffffffffffffffffffffff161461030a576040517f10e0797900000000000000000000000000000000000000000000000000000000815260040160405180910390fd5b60003373ffffffffffffffffffffffffffffffffffffffff1647604051610330906106d2565b60006040518083038185875af1925050503d806000811461036d576040519150601f19603f3d011682016040523d82523d6000602084013e610372565b606091505b50509050806103b6576040517f08c379a00000000000000000000000000000000000000000000000000000000081526004016103ad90610733565b60405180910390fd5b50565b60005481565b60026020528060005260406000206000915090505481565b7f000000000000000000000000000000000000000000000000000000000000000081565b6001818154811061040b57600080fd5b906000526020600020016000915054906101000a900473ffffffffffffffffffffffffffffffffffffffff1681565b6000808273ffffffffffffffffffffffffffffffffffffffff1663feaf968c6040518163ffffffff1660e01b815260040160a060405180830381865afa158015610488573d6000803e3d6000fd5b505050506040513d601f19601f820116820180604052508101906104ac91906107e0565b505050915050806a52b7d2dcc80cd2e4000000856104ca919061088a565b6104d491906108fb565b91505092915050565b6000819050919050565b6104f0816104dd565b82525050565b600060208201905061050b60008301846104e7565b92915050565b600080fd5b600073ffffffffffffffffffffffffffffffffffffffff82169050919050565b600061054182610516565b9050919050565b61055181610536565b811461055c57600080fd5b50565b60008135905061056e81610548565b92915050565b60006020828403121561058a57610589610511565b5b60006105988482850161055f565b91505092915050565b6105aa81610536565b82525050565b60006020820190506105c560008301846105a1565b92915050565b6105d4816104dd565b81146105df57600080fd5b50565b6000813590506105f1816105cb565b92915050565b60006020828403121561060d5761060c610511565b5b600061061b848285016105e2565b91505092915050565b600082825260208201905092915050565b7f4469646e27742073656e6420656e6f7567682075736400000000000000000000600082015250565b600061066b601683610624565b915061067682610635565b602082019050919050565b6000602082019050818103600083015261069a8161065e565b9050919050565b600081905092915050565b50565b60006106bc6000836106a1565b91506106c7826106ac565b600082019050919050565b60006106dd826106af565b9150819050919050565b7f43616c6c206661696c6564000000000000000000000000000000000000000000600082015250565b600061071d600b83610624565b9150610728826106e7565b602082019050919050565b6000602082019050818103600083015261074c81610710565b9050919050565b600069ffffffffffffffffffff82169050919050565b61077281610753565b811461077d57600080fd5b50565b60008151905061078f81610769565b92915050565b6000819050919050565b6107a881610795565b81146107b357600080fd5b50565b6000815190506107c58161079f565b92915050565b6000815190506107da816105cb565b92915050565b600080600080600060a086880312156107fc576107fb610511565b5b600061080a88828901610780565b955050602061081b888289016107b6565b945050604061082c888289016107cb565b935050606061083d888289016107cb565b925050608061084e88828901610780565b9150509295509295909350565b7f4e487b7100000000000000000000000000000000000000000000000000000000600052601160045260246000fd5b6000610895826104dd565b91506108a0836104dd565b92508282026108ae816104dd565b915082820484148315176108c5576108c461085b565b5b5092915050565b7f4e487b7100000000000000000000000000000000000000000000000000000000600052601260045260246000fd5b6000610906826104dd565b9150610911836104dd565b925082610921576109206108cc565b5b82820490509291505056fea26469706673582212202ec1e53e53f9c711616d7bdf8524730b8cdf3e3be9ad5e56ffc4b65bda51551b64736f6c63430008180033",
    "devdoc": {
        "kind": "dev",
        "methods": {},
        "version": 1
    },
    "userdoc": {
        "kind": "user",
        "methods": {},
        "version": 1
    },
    "storageLayout": {
        "storage": [
            {
                "astId": 57,
                "contract": "contracts/FundMe.sol:FundMe",
                "label": "minUsd",
                "offset": 0,
                "slot": "0",
                "type": "t_uint256"
            },
            {
                "astId": 60,
                "contract": "contracts/FundMe.sol:FundMe",
                "label": "funders",
                "offset": 0,
                "slot": "1",
                "type": "t_array(t_address)dyn_storage"
            },
            {
                "astId": 64,
                "contract": "contracts/FundMe.sol:FundMe",
                "label": "addressToAmmountFunded",
                "offset": 0,
                "slot": "2",
                "type": "t_mapping(t_address,t_uint256)"
            },
            {
                "astId": 67,
                "contract": "contracts/FundMe.sol:FundMe",
                "label": "s_priceFeed",
                "offset": 0,
                "slot": "3",
                "type": "t_contract(AggregatorV3Interface)45"
            }
        ],
        "types": {
            "t_address": {
                "encoding": "inplace",
                "label": "address",
                "numberOfBytes": "20"
            },
            "t_array(t_address)dyn_storage": {
                "base": "t_address",
                "encoding": "dynamic_array",
                "label": "address[]",
                "numberOfBytes": "32"
            },
            "t_contract(AggregatorV3Interface)45": {
                "encoding": "inplace",
                "label": "contract AggregatorV3Interface",
                "numberOfBytes": "20"
            },
            "t_mapping(t_address,t_uint256)": {
                "encoding": "mapping",
                "key": "t_address",
                "label": "mapping(address => uint256)",
                "numberOfBytes": "32",
                "value": "t_uint256"
            },
            "t_uint256": {
                "encoding": "inplace",
                "label": "uint256",
                "numberOfBytes": "32"
            }
        }
    }
}